{
  "contracts/CircomExample.sol": {
    "CircomExample": {
      "abi": [
        {
          "inputs": [
            {
              "internalType": "address",
              "name": "_multiplier",
              "type": "address"
            }
          ],
          "stateMutability": "payable",
          "type": "constructor"
        },
        {
          "inputs": [],
          "name": "multiplier",
          "outputs": [
            {
              "internalType": "contract MultiplierVerifier",
              "name": "",
              "type": "address"
            }
          ],
          "stateMutability": "view",
          "type": "function"
        },
        {
          "inputs": [
            {
              "internalType": "bytes",
              "name": "_proof",
              "type": "bytes"
            },
            {
              "internalType": "uint256[1]",
              "name": "_pubSignals",
              "type": "uint256[1]"
            }
          ],
          "name": "multiplierVerify",
          "outputs": [],
          "stateMutability": "view",
          "type": "function"
        }
      ],
      "evm": {
        "bytecode": {
          "linkReferences": {},
          "object": "6080604052604051610c29380380610c29833981810160405281019061002591906100ce565b806000806101000a81548173ffffffffffffffffffffffffffffffffffffffff021916908373ffffffffffffffffffffffffffffffffffffffff160217905550506100fb565b600080fd5b600073ffffffffffffffffffffffffffffffffffffffff82169050919050565b600061009b82610070565b9050919050565b6100ab81610090565b81146100b657600080fd5b50565b6000815190506100c8816100a2565b92915050565b6000602082840312156100e4576100e361006b565b5b60006100f2848285016100b9565b91505092915050565b610b1f8061010a6000396000f3fe608060405234801561001057600080fd5b50600436106100365760003560e01c80631b3ed7221461003b578063d910276d14610059575b600080fd5b610043610075565b60405161005091906103dc565b60405180910390f35b610073600480360381019061006e919061063d565b610099565b005b60008054906101000a900473ffffffffffffffffffffffffffffffffffffffff1681565b60008060006100a785610193565b92509250925060008054906101000a900473ffffffffffffffffffffffffffffffffffffffff1673ffffffffffffffffffffffffffffffffffffffff166343753b4d848484886040518563ffffffff1660e01b815260040161010c94939291906108c6565b602060405180830381865afa158015610129573d6000803e3d6000fd5b505050506040513d601f19601f8201168201806040525081019061014d9190610945565b61018c576040517f08c379a0000000000000000000000000000000000000000000000000000000008152600401610183906109cf565b60405180910390fd5b5050505050565b61019b61030e565b6101a3610330565b6101ab61030e565b838060200190518101906101bf9190610a04565b8a6000600281106101d3576101d2610aba565b5b602002018b6001600281106101eb576101ea610aba565b5b602002018b60006002811061020357610202610aba565b5b602002015160006002811061021b5761021a610aba565b5b602002018c60006002811061023357610232610aba565b5b602002015160016002811061024b5761024a610aba565b5b602002018d60016002811061026357610262610aba565b5b602002015160006002811061027b5761027a610aba565b5b602002018e60016002811061029357610292610aba565b5b60200201516001600281106102ab576102aa610aba565b5b602002018e6000600281106102c3576102c2610aba565b5b602002018f6001600281106102db576102da610aba565b5b60200201888152508881525088815250888152508881525088815250888152508881525050505050505050509193909250565b6040518060400160405280600290602082028036833780820191505090505090565b60405180604001604052806002905b61034761030e565b81526020019060019003908161033f5790505090565b600073ffffffffffffffffffffffffffffffffffffffff82169050919050565b6000819050919050565b60006103a261039d6103988461035d565b61037d565b61035d565b9050919050565b60006103b482610387565b9050919050565b60006103c6826103a9565b9050919050565b6103d6816103bb565b82525050565b60006020820190506103f160008301846103cd565b92915050565b6000604051905090565b600080fd5b600080fd5b600080fd5b600080fd5b6000601f19601f8301169050919050565b7f4e487b7100000000000000000000000000000000000000000000000000000000600052604160045260246000fd5b61045e82610415565b810181811067ffffffffffffffff8211171561047d5761047c610426565b5b80604052505050565b60006104906103f7565b905061049c8282610455565b919050565b600067ffffffffffffffff8211156104bc576104bb610426565b5b6104c582610415565b9050602081019050919050565b82818337600083830152505050565b60006104f46104ef846104a1565b610486565b9050828152602081018484840111156105105761050f610410565b5b61051b8482856104d2565b509392505050565b600082601f8301126105385761053761040b565b5b81356105488482602086016104e1565b91505092915050565b600067ffffffffffffffff82111561056c5761056b610426565b5b602082029050919050565b600080fd5b6000819050919050565b61058f8161057c565b811461059a57600080fd5b50565b6000813590506105ac81610586565b92915050565b60006105c56105c084610551565b610486565b905080602084028301858111156105df576105de610577565b5b835b8181101561060857806105f4888261059d565b8452602084019350506020810190506105e1565b5050509392505050565b600082601f8301126106275761062661040b565b5b60016106348482856105b2565b91505092915050565b6000806040838503121561065457610653610401565b5b600083013567ffffffffffffffff81111561067257610671610406565b5b61067e85828601610523565b925050602061068f85828601610612565b9150509250929050565b600060029050919050565b600081905092915050565b6000819050919050565b6106c28161057c565b82525050565b60006106d483836106b9565b60208301905092915050565b6000602082019050919050565b6106f681610699565b61070081846106a4565b925061070b826106af565b8060005b8381101561073c57815161072387826106c8565b965061072e836106e0565b92505060018101905061070f565b505050505050565b600060029050919050565b600081905092915050565b6000819050919050565b600081905092915050565b61077881610699565b6107828184610764565b925061078d826106af565b8060005b838110156107be5781516107a587826106c8565b96506107b0836106e0565b925050600181019050610791565b505050505050565b60006107d2838361076f565b60408301905092915050565b6000602082019050919050565b6107f481610744565b6107fe818461074f565b92506108098261075a565b8060005b8381101561083a57815161082187826107c6565b965061082c836107de565b92505060018101905061080d565b505050505050565b600060019050919050565b600081905092915050565b6000819050919050565b6000602082019050919050565b61087881610842565b610882818461084d565b925061088d82610858565b8060005b838110156108be5781516108a587826106c8565b96506108b083610862565b925050600181019050610891565b505050505050565b6000610120820190506108dc60008301876106ed565b6108e960408301866107eb565b6108f660c08301856106ed565b61090461010083018461086f565b95945050505050565b60008115159050919050565b6109228161090d565b811461092d57600080fd5b50565b60008151905061093f81610919565b92915050565b60006020828403121561095b5761095a610401565b5b600061096984828501610930565b91505092915050565b600082825260208201905092915050565b7f696e76616c69642070726f6f6600000000000000000000000000000000000000600082015250565b60006109b9600d83610972565b91506109c482610983565b602082019050919050565b600060208201905081810360008301526109e8816109ac565b9050919050565b6000815190506109fe81610586565b92915050565b600080600080600080600080610100898b031215610a2557610a24610401565b5b6000610a338b828c016109ef565b9850506020610a448b828c016109ef565b9750506040610a558b828c016109ef565b9650506060610a668b828c016109ef565b9550506080610a778b828c016109ef565b94505060a0610a888b828c016109ef565b93505060c0610a998b828c016109ef565b92505060e0610aaa8b828c016109ef565b9150509295985092959890939650565b7f4e487b7100000000000000000000000000000000000000000000000000000000600052603260045260246000fdfea2646970667358221220402f4d1d7fe03da1d0666829aee2e3cddb982d4ec34fb7a5ae1152af50f6fa4564736f6c63430008180033",
          "opcodes": "PUSH1 0x80 PUSH1 0x40 MSTORE PUSH1 0x40 MLOAD PUSH2 0xC29 CODESIZE SUB DUP1 PUSH2 0xC29 DUP4 CODECOPY DUP2 DUP2 ADD PUSH1 0x40 MSTORE DUP2 ADD SWAP1 PUSH2 0x25 SWAP2 SWAP1 PUSH2 0xCE JUMP JUMPDEST DUP1 PUSH1 0x0 DUP1 PUSH2 0x100 EXP DUP2 SLOAD DUP2 PUSH20 0xFFFFFFFFFFFFFFFFFFFFFFFFFFFFFFFFFFFFFFFF MUL NOT AND SWAP1 DUP4 PUSH20 0xFFFFFFFFFFFFFFFFFFFFFFFFFFFFFFFFFFFFFFFF AND MUL OR SWAP1 SSTORE POP POP PUSH2 0xFB JUMP JUMPDEST PUSH1 0x0 DUP1 REVERT JUMPDEST PUSH1 0x0 PUSH20 0xFFFFFFFFFFFFFFFFFFFFFFFFFFFFFFFFFFFFFFFF DUP3 AND SWAP1 POP SWAP2 SWAP1 POP JUMP JUMPDEST PUSH1 0x0 PUSH2 0x9B DUP3 PUSH2 0x70 JUMP JUMPDEST SWAP1 POP SWAP2 SWAP1 POP JUMP JUMPDEST PUSH2 0xAB DUP2 PUSH2 0x90 JUMP JUMPDEST DUP2 EQ PUSH2 0xB6 JUMPI PUSH1 0x0 DUP1 REVERT JUMPDEST POP JUMP JUMPDEST PUSH1 0x0 DUP2 MLOAD SWAP1 POP PUSH2 0xC8 DUP2 PUSH2 0xA2 JUMP JUMPDEST SWAP3 SWAP2 POP POP JUMP JUMPDEST PUSH1 0x0 PUSH1 0x20 DUP3 DUP5 SUB SLT ISZERO PUSH2 0xE4 JUMPI PUSH2 0xE3 PUSH2 0x6B JUMP JUMPDEST JUMPDEST PUSH1 0x0 PUSH2 0xF2 DUP5 DUP3 DUP6 ADD PUSH2 0xB9 JUMP JUMPDEST SWAP2 POP POP SWAP3 SWAP2 POP POP JUMP JUMPDEST PUSH2 0xB1F DUP1 PUSH2 0x10A PUSH1 0x0 CODECOPY PUSH1 0x0 RETURN INVALID PUSH1 0x80 PUSH1 0x40 MSTORE CALLVALUE DUP1 ISZERO PUSH2 0x10 JUMPI PUSH1 0x0 DUP1 REVERT JUMPDEST POP PUSH1 0x4 CALLDATASIZE LT PUSH2 0x36 JUMPI PUSH1 0x0 CALLDATALOAD PUSH1 0xE0 SHR DUP1 PUSH4 0x1B3ED722 EQ PUSH2 0x3B JUMPI DUP1 PUSH4 0xD910276D EQ PUSH2 0x59 JUMPI JUMPDEST PUSH1 0x0 DUP1 REVERT JUMPDEST PUSH2 0x43 PUSH2 0x75 JUMP JUMPDEST PUSH1 0x40 MLOAD PUSH2 0x50 SWAP2 SWAP1 PUSH2 0x3DC JUMP JUMPDEST PUSH1 0x40 MLOAD DUP1 SWAP2 SUB SWAP1 RETURN JUMPDEST PUSH2 0x73 PUSH1 0x4 DUP1 CALLDATASIZE SUB DUP2 ADD SWAP1 PUSH2 0x6E SWAP2 SWAP1 PUSH2 0x63D JUMP JUMPDEST PUSH2 0x99 JUMP JUMPDEST STOP JUMPDEST PUSH1 0x0 DUP1 SLOAD SWAP1 PUSH2 0x100 EXP SWAP1 DIV PUSH20 0xFFFFFFFFFFFFFFFFFFFFFFFFFFFFFFFFFFFFFFFF AND DUP2 JUMP JUMPDEST PUSH1 0x0 DUP1 PUSH1 0x0 PUSH2 0xA7 DUP6 PUSH2 0x193 JUMP JUMPDEST SWAP3 POP SWAP3 POP SWAP3 POP PUSH1 0x0 DUP1 SLOAD SWAP1 PUSH2 0x100 EXP SWAP1 DIV PUSH20 0xFFFFFFFFFFFFFFFFFFFFFFFFFFFFFFFFFFFFFFFF AND PUSH20 0xFFFFFFFFFFFFFFFFFFFFFFFFFFFFFFFFFFFFFFFF AND PUSH4 0x43753B4D DUP5 DUP5 DUP5 DUP9 PUSH1 0x40 MLOAD DUP6 PUSH4 0xFFFFFFFF AND PUSH1 0xE0 SHL DUP2 MSTORE PUSH1 0x4 ADD PUSH2 0x10C SWAP5 SWAP4 SWAP3 SWAP2 SWAP1 PUSH2 0x8C6 JUMP JUMPDEST PUSH1 0x20 PUSH1 0x40 MLOAD DUP1 DUP4 SUB DUP2 DUP7 GAS STATICCALL ISZERO DUP1 ISZERO PUSH2 0x129 JUMPI RETURNDATASIZE PUSH1 0x0 DUP1 RETURNDATACOPY RETURNDATASIZE PUSH1 0x0 REVERT JUMPDEST POP POP POP POP PUSH1 0x40 MLOAD RETURNDATASIZE PUSH1 0x1F NOT PUSH1 0x1F DUP3 ADD AND DUP3 ADD DUP1 PUSH1 0x40 MSTORE POP DUP2 ADD SWAP1 PUSH2 0x14D SWAP2 SWAP1 PUSH2 0x945 JUMP JUMPDEST PUSH2 0x18C JUMPI PUSH1 0x40 MLOAD PUSH32 0x8C379A000000000000000000000000000000000000000000000000000000000 DUP2 MSTORE PUSH1 0x4 ADD PUSH2 0x183 SWAP1 PUSH2 0x9CF JUMP JUMPDEST PUSH1 0x40 MLOAD DUP1 SWAP2 SUB SWAP1 REVERT JUMPDEST POP POP POP POP POP JUMP JUMPDEST PUSH2 0x19B PUSH2 0x30E JUMP JUMPDEST PUSH2 0x1A3 PUSH2 0x330 JUMP JUMPDEST PUSH2 0x1AB PUSH2 0x30E JUMP JUMPDEST DUP4 DUP1 PUSH1 0x20 ADD SWAP1 MLOAD DUP2 ADD SWAP1 PUSH2 0x1BF SWAP2 SWAP1 PUSH2 0xA04 JUMP JUMPDEST DUP11 PUSH1 0x0 PUSH1 0x2 DUP2 LT PUSH2 0x1D3 JUMPI PUSH2 0x1D2 PUSH2 0xABA JUMP JUMPDEST JUMPDEST PUSH1 0x20 MUL ADD DUP12 PUSH1 0x1 PUSH1 0x2 DUP2 LT PUSH2 0x1EB JUMPI PUSH2 0x1EA PUSH2 0xABA JUMP JUMPDEST JUMPDEST PUSH1 0x20 MUL ADD DUP12 PUSH1 0x0 PUSH1 0x2 DUP2 LT PUSH2 0x203 JUMPI PUSH2 0x202 PUSH2 0xABA JUMP JUMPDEST JUMPDEST PUSH1 0x20 MUL ADD MLOAD PUSH1 0x0 PUSH1 0x2 DUP2 LT PUSH2 0x21B JUMPI PUSH2 0x21A PUSH2 0xABA JUMP JUMPDEST JUMPDEST PUSH1 0x20 MUL ADD DUP13 PUSH1 0x0 PUSH1 0x2 DUP2 LT PUSH2 0x233 JUMPI PUSH2 0x232 PUSH2 0xABA JUMP JUMPDEST JUMPDEST PUSH1 0x20 MUL ADD MLOAD PUSH1 0x1 PUSH1 0x2 DUP2 LT PUSH2 0x24B JUMPI PUSH2 0x24A PUSH2 0xABA JUMP JUMPDEST JUMPDEST PUSH1 0x20 MUL ADD DUP14 PUSH1 0x1 PUSH1 0x2 DUP2 LT PUSH2 0x263 JUMPI PUSH2 0x262 PUSH2 0xABA JUMP JUMPDEST JUMPDEST PUSH1 0x20 MUL ADD MLOAD PUSH1 0x0 PUSH1 0x2 DUP2 LT PUSH2 0x27B JUMPI PUSH2 0x27A PUSH2 0xABA JUMP JUMPDEST JUMPDEST PUSH1 0x20 MUL ADD DUP15 PUSH1 0x1 PUSH1 0x2 DUP2 LT PUSH2 0x293 JUMPI PUSH2 0x292 PUSH2 0xABA JUMP JUMPDEST JUMPDEST PUSH1 0x20 MUL ADD MLOAD PUSH1 0x1 PUSH1 0x2 DUP2 LT PUSH2 0x2AB JUMPI PUSH2 0x2AA PUSH2 0xABA JUMP JUMPDEST JUMPDEST PUSH1 0x20 MUL ADD DUP15 PUSH1 0x0 PUSH1 0x2 DUP2 LT PUSH2 0x2C3 JUMPI PUSH2 0x2C2 PUSH2 0xABA JUMP JUMPDEST JUMPDEST PUSH1 0x20 MUL ADD DUP16 PUSH1 0x1 PUSH1 0x2 DUP2 LT PUSH2 0x2DB JUMPI PUSH2 0x2DA PUSH2 0xABA JUMP JUMPDEST JUMPDEST PUSH1 0x20 MUL ADD DUP9 DUP2 MSTORE POP DUP9 DUP2 MSTORE POP DUP9 DUP2 MSTORE POP DUP9 DUP2 MSTORE POP DUP9 DUP2 MSTORE POP DUP9 DUP2 MSTORE POP DUP9 DUP2 MSTORE POP DUP9 DUP2 MSTORE POP POP POP POP POP POP POP POP POP SWAP2 SWAP4 SWAP1 SWAP3 POP JUMP JUMPDEST PUSH1 0x40 MLOAD DUP1 PUSH1 0x40 ADD PUSH1 0x40 MSTORE DUP1 PUSH1 0x2 SWAP1 PUSH1 0x20 DUP3 MUL DUP1 CALLDATASIZE DUP4 CALLDATACOPY DUP1 DUP3 ADD SWAP2 POP POP SWAP1 POP POP SWAP1 JUMP JUMPDEST PUSH1 0x40 MLOAD DUP1 PUSH1 0x40 ADD PUSH1 0x40 MSTORE DUP1 PUSH1 0x2 SWAP1 JUMPDEST PUSH2 0x347 PUSH2 0x30E JUMP JUMPDEST DUP2 MSTORE PUSH1 0x20 ADD SWAP1 PUSH1 0x1 SWAP1 SUB SWAP1 DUP2 PUSH2 0x33F JUMPI SWAP1 POP POP SWAP1 JUMP JUMPDEST PUSH1 0x0 PUSH20 0xFFFFFFFFFFFFFFFFFFFFFFFFFFFFFFFFFFFFFFFF DUP3 AND SWAP1 POP SWAP2 SWAP1 POP JUMP JUMPDEST PUSH1 0x0 DUP2 SWAP1 POP SWAP2 SWAP1 POP JUMP JUMPDEST PUSH1 0x0 PUSH2 0x3A2 PUSH2 0x39D PUSH2 0x398 DUP5 PUSH2 0x35D JUMP JUMPDEST PUSH2 0x37D JUMP JUMPDEST PUSH2 0x35D JUMP JUMPDEST SWAP1 POP SWAP2 SWAP1 POP JUMP JUMPDEST PUSH1 0x0 PUSH2 0x3B4 DUP3 PUSH2 0x387 JUMP JUMPDEST SWAP1 POP SWAP2 SWAP1 POP JUMP JUMPDEST PUSH1 0x0 PUSH2 0x3C6 DUP3 PUSH2 0x3A9 JUMP JUMPDEST SWAP1 POP SWAP2 SWAP1 POP JUMP JUMPDEST PUSH2 0x3D6 DUP2 PUSH2 0x3BB JUMP JUMPDEST DUP3 MSTORE POP POP JUMP JUMPDEST PUSH1 0x0 PUSH1 0x20 DUP3 ADD SWAP1 POP PUSH2 0x3F1 PUSH1 0x0 DUP4 ADD DUP5 PUSH2 0x3CD JUMP JUMPDEST SWAP3 SWAP2 POP POP JUMP JUMPDEST PUSH1 0x0 PUSH1 0x40 MLOAD SWAP1 POP SWAP1 JUMP JUMPDEST PUSH1 0x0 DUP1 REVERT JUMPDEST PUSH1 0x0 DUP1 REVERT JUMPDEST PUSH1 0x0 DUP1 REVERT JUMPDEST PUSH1 0x0 DUP1 REVERT JUMPDEST PUSH1 0x0 PUSH1 0x1F NOT PUSH1 0x1F DUP4 ADD AND SWAP1 POP SWAP2 SWAP1 POP JUMP JUMPDEST PUSH32 0x4E487B7100000000000000000000000000000000000000000000000000000000 PUSH1 0x0 MSTORE PUSH1 0x41 PUSH1 0x4 MSTORE PUSH1 0x24 PUSH1 0x0 REVERT JUMPDEST PUSH2 0x45E DUP3 PUSH2 0x415 JUMP JUMPDEST DUP2 ADD DUP2 DUP2 LT PUSH8 0xFFFFFFFFFFFFFFFF DUP3 GT OR ISZERO PUSH2 0x47D JUMPI PUSH2 0x47C PUSH2 0x426 JUMP JUMPDEST JUMPDEST DUP1 PUSH1 0x40 MSTORE POP POP POP JUMP JUMPDEST PUSH1 0x0 PUSH2 0x490 PUSH2 0x3F7 JUMP JUMPDEST SWAP1 POP PUSH2 0x49C DUP3 DUP3 PUSH2 0x455 JUMP JUMPDEST SWAP2 SWAP1 POP JUMP JUMPDEST PUSH1 0x0 PUSH8 0xFFFFFFFFFFFFFFFF DUP3 GT ISZERO PUSH2 0x4BC JUMPI PUSH2 0x4BB PUSH2 0x426 JUMP JUMPDEST JUMPDEST PUSH2 0x4C5 DUP3 PUSH2 0x415 JUMP JUMPDEST SWAP1 POP PUSH1 0x20 DUP2 ADD SWAP1 POP SWAP2 SWAP1 POP JUMP JUMPDEST DUP3 DUP2 DUP4 CALLDATACOPY PUSH1 0x0 DUP4 DUP4 ADD MSTORE POP POP POP JUMP JUMPDEST PUSH1 0x0 PUSH2 0x4F4 PUSH2 0x4EF DUP5 PUSH2 0x4A1 JUMP JUMPDEST PUSH2 0x486 JUMP JUMPDEST SWAP1 POP DUP3 DUP2 MSTORE PUSH1 0x20 DUP2 ADD DUP5 DUP5 DUP5 ADD GT ISZERO PUSH2 0x510 JUMPI PUSH2 0x50F PUSH2 0x410 JUMP JUMPDEST JUMPDEST PUSH2 0x51B DUP5 DUP3 DUP6 PUSH2 0x4D2 JUMP JUMPDEST POP SWAP4 SWAP3 POP POP POP JUMP JUMPDEST PUSH1 0x0 DUP3 PUSH1 0x1F DUP4 ADD SLT PUSH2 0x538 JUMPI PUSH2 0x537 PUSH2 0x40B JUMP JUMPDEST JUMPDEST DUP2 CALLDATALOAD PUSH2 0x548 DUP5 DUP3 PUSH1 0x20 DUP7 ADD PUSH2 0x4E1 JUMP JUMPDEST SWAP2 POP POP SWAP3 SWAP2 POP POP JUMP JUMPDEST PUSH1 0x0 PUSH8 0xFFFFFFFFFFFFFFFF DUP3 GT ISZERO PUSH2 0x56C JUMPI PUSH2 0x56B PUSH2 0x426 JUMP JUMPDEST JUMPDEST PUSH1 0x20 DUP3 MUL SWAP1 POP SWAP2 SWAP1 POP JUMP JUMPDEST PUSH1 0x0 DUP1 REVERT JUMPDEST PUSH1 0x0 DUP2 SWAP1 POP SWAP2 SWAP1 POP JUMP JUMPDEST PUSH2 0x58F DUP2 PUSH2 0x57C JUMP JUMPDEST DUP2 EQ PUSH2 0x59A JUMPI PUSH1 0x0 DUP1 REVERT JUMPDEST POP JUMP JUMPDEST PUSH1 0x0 DUP2 CALLDATALOAD SWAP1 POP PUSH2 0x5AC DUP2 PUSH2 0x586 JUMP JUMPDEST SWAP3 SWAP2 POP POP JUMP JUMPDEST PUSH1 0x0 PUSH2 0x5C5 PUSH2 0x5C0 DUP5 PUSH2 0x551 JUMP JUMPDEST PUSH2 0x486 JUMP JUMPDEST SWAP1 POP DUP1 PUSH1 0x20 DUP5 MUL DUP4 ADD DUP6 DUP2 GT ISZERO PUSH2 0x5DF JUMPI PUSH2 0x5DE PUSH2 0x577 JUMP JUMPDEST JUMPDEST DUP4 JUMPDEST DUP2 DUP2 LT ISZERO PUSH2 0x608 JUMPI DUP1 PUSH2 0x5F4 DUP9 DUP3 PUSH2 0x59D JUMP JUMPDEST DUP5 MSTORE PUSH1 0x20 DUP5 ADD SWAP4 POP POP PUSH1 0x20 DUP2 ADD SWAP1 POP PUSH2 0x5E1 JUMP JUMPDEST POP POP POP SWAP4 SWAP3 POP POP POP JUMP JUMPDEST PUSH1 0x0 DUP3 PUSH1 0x1F DUP4 ADD SLT PUSH2 0x627 JUMPI PUSH2 0x626 PUSH2 0x40B JUMP JUMPDEST JUMPDEST PUSH1 0x1 PUSH2 0x634 DUP5 DUP3 DUP6 PUSH2 0x5B2 JUMP JUMPDEST SWAP2 POP POP SWAP3 SWAP2 POP POP JUMP JUMPDEST PUSH1 0x0 DUP1 PUSH1 0x40 DUP4 DUP6 SUB SLT ISZERO PUSH2 0x654 JUMPI PUSH2 0x653 PUSH2 0x401 JUMP JUMPDEST JUMPDEST PUSH1 0x0 DUP4 ADD CALLDATALOAD PUSH8 0xFFFFFFFFFFFFFFFF DUP2 GT ISZERO PUSH2 0x672 JUMPI PUSH2 0x671 PUSH2 0x406 JUMP JUMPDEST JUMPDEST PUSH2 0x67E DUP6 DUP3 DUP7 ADD PUSH2 0x523 JUMP JUMPDEST SWAP3 POP POP PUSH1 0x20 PUSH2 0x68F DUP6 DUP3 DUP7 ADD PUSH2 0x612 JUMP JUMPDEST SWAP2 POP POP SWAP3 POP SWAP3 SWAP1 POP JUMP JUMPDEST PUSH1 0x0 PUSH1 0x2 SWAP1 POP SWAP2 SWAP1 POP JUMP JUMPDEST PUSH1 0x0 DUP2 SWAP1 POP SWAP3 SWAP2 POP POP JUMP JUMPDEST PUSH1 0x0 DUP2 SWAP1 POP SWAP2 SWAP1 POP JUMP JUMPDEST PUSH2 0x6C2 DUP2 PUSH2 0x57C JUMP JUMPDEST DUP3 MSTORE POP POP JUMP JUMPDEST PUSH1 0x0 PUSH2 0x6D4 DUP4 DUP4 PUSH2 0x6B9 JUMP JUMPDEST PUSH1 0x20 DUP4 ADD SWAP1 POP SWAP3 SWAP2 POP POP JUMP JUMPDEST PUSH1 0x0 PUSH1 0x20 DUP3 ADD SWAP1 POP SWAP2 SWAP1 POP JUMP JUMPDEST PUSH2 0x6F6 DUP2 PUSH2 0x699 JUMP JUMPDEST PUSH2 0x700 DUP2 DUP5 PUSH2 0x6A4 JUMP JUMPDEST SWAP3 POP PUSH2 0x70B DUP3 PUSH2 0x6AF JUMP JUMPDEST DUP1 PUSH1 0x0 JUMPDEST DUP4 DUP2 LT ISZERO PUSH2 0x73C JUMPI DUP2 MLOAD PUSH2 0x723 DUP8 DUP3 PUSH2 0x6C8 JUMP JUMPDEST SWAP7 POP PUSH2 0x72E DUP4 PUSH2 0x6E0 JUMP JUMPDEST SWAP3 POP POP PUSH1 0x1 DUP2 ADD SWAP1 POP PUSH2 0x70F JUMP JUMPDEST POP POP POP POP POP POP JUMP JUMPDEST PUSH1 0x0 PUSH1 0x2 SWAP1 POP SWAP2 SWAP1 POP JUMP JUMPDEST PUSH1 0x0 DUP2 SWAP1 POP SWAP3 SWAP2 POP POP JUMP JUMPDEST PUSH1 0x0 DUP2 SWAP1 POP SWAP2 SWAP1 POP JUMP JUMPDEST PUSH1 0x0 DUP2 SWAP1 POP SWAP3 SWAP2 POP POP JUMP JUMPDEST PUSH2 0x778 DUP2 PUSH2 0x699 JUMP JUMPDEST PUSH2 0x782 DUP2 DUP5 PUSH2 0x764 JUMP JUMPDEST SWAP3 POP PUSH2 0x78D DUP3 PUSH2 0x6AF JUMP JUMPDEST DUP1 PUSH1 0x0 JUMPDEST DUP4 DUP2 LT ISZERO PUSH2 0x7BE JUMPI DUP2 MLOAD PUSH2 0x7A5 DUP8 DUP3 PUSH2 0x6C8 JUMP JUMPDEST SWAP7 POP PUSH2 0x7B0 DUP4 PUSH2 0x6E0 JUMP JUMPDEST SWAP3 POP POP PUSH1 0x1 DUP2 ADD SWAP1 POP PUSH2 0x791 JUMP JUMPDEST POP POP POP POP POP POP JUMP JUMPDEST PUSH1 0x0 PUSH2 0x7D2 DUP4 DUP4 PUSH2 0x76F JUMP JUMPDEST PUSH1 0x40 DUP4 ADD SWAP1 POP SWAP3 SWAP2 POP POP JUMP JUMPDEST PUSH1 0x0 PUSH1 0x20 DUP3 ADD SWAP1 POP SWAP2 SWAP1 POP JUMP JUMPDEST PUSH2 0x7F4 DUP2 PUSH2 0x744 JUMP JUMPDEST PUSH2 0x7FE DUP2 DUP5 PUSH2 0x74F JUMP JUMPDEST SWAP3 POP PUSH2 0x809 DUP3 PUSH2 0x75A JUMP JUMPDEST DUP1 PUSH1 0x0 JUMPDEST DUP4 DUP2 LT ISZERO PUSH2 0x83A JUMPI DUP2 MLOAD PUSH2 0x821 DUP8 DUP3 PUSH2 0x7C6 JUMP JUMPDEST SWAP7 POP PUSH2 0x82C DUP4 PUSH2 0x7DE JUMP JUMPDEST SWAP3 POP POP PUSH1 0x1 DUP2 ADD SWAP1 POP PUSH2 0x80D JUMP JUMPDEST POP POP POP POP POP POP JUMP JUMPDEST PUSH1 0x0 PUSH1 0x1 SWAP1 POP SWAP2 SWAP1 POP JUMP JUMPDEST PUSH1 0x0 DUP2 SWAP1 POP SWAP3 SWAP2 POP POP JUMP JUMPDEST PUSH1 0x0 DUP2 SWAP1 POP SWAP2 SWAP1 POP JUMP JUMPDEST PUSH1 0x0 PUSH1 0x20 DUP3 ADD SWAP1 POP SWAP2 SWAP1 POP JUMP JUMPDEST PUSH2 0x878 DUP2 PUSH2 0x842 JUMP JUMPDEST PUSH2 0x882 DUP2 DUP5 PUSH2 0x84D JUMP JUMPDEST SWAP3 POP PUSH2 0x88D DUP3 PUSH2 0x858 JUMP JUMPDEST DUP1 PUSH1 0x0 JUMPDEST DUP4 DUP2 LT ISZERO PUSH2 0x8BE JUMPI DUP2 MLOAD PUSH2 0x8A5 DUP8 DUP3 PUSH2 0x6C8 JUMP JUMPDEST SWAP7 POP PUSH2 0x8B0 DUP4 PUSH2 0x862 JUMP JUMPDEST SWAP3 POP POP PUSH1 0x1 DUP2 ADD SWAP1 POP PUSH2 0x891 JUMP JUMPDEST POP POP POP POP POP POP JUMP JUMPDEST PUSH1 0x0 PUSH2 0x120 DUP3 ADD SWAP1 POP PUSH2 0x8DC PUSH1 0x0 DUP4 ADD DUP8 PUSH2 0x6ED JUMP JUMPDEST PUSH2 0x8E9 PUSH1 0x40 DUP4 ADD DUP7 PUSH2 0x7EB JUMP JUMPDEST PUSH2 0x8F6 PUSH1 0xC0 DUP4 ADD DUP6 PUSH2 0x6ED JUMP JUMPDEST PUSH2 0x904 PUSH2 0x100 DUP4 ADD DUP5 PUSH2 0x86F JUMP JUMPDEST SWAP6 SWAP5 POP POP POP POP POP JUMP JUMPDEST PUSH1 0x0 DUP2 ISZERO ISZERO SWAP1 POP SWAP2 SWAP1 POP JUMP JUMPDEST PUSH2 0x922 DUP2 PUSH2 0x90D JUMP JUMPDEST DUP2 EQ PUSH2 0x92D JUMPI PUSH1 0x0 DUP1 REVERT JUMPDEST POP JUMP JUMPDEST PUSH1 0x0 DUP2 MLOAD SWAP1 POP PUSH2 0x93F DUP2 PUSH2 0x919 JUMP JUMPDEST SWAP3 SWAP2 POP POP JUMP JUMPDEST PUSH1 0x0 PUSH1 0x20 DUP3 DUP5 SUB SLT ISZERO PUSH2 0x95B JUMPI PUSH2 0x95A PUSH2 0x401 JUMP JUMPDEST JUMPDEST PUSH1 0x0 PUSH2 0x969 DUP5 DUP3 DUP6 ADD PUSH2 0x930 JUMP JUMPDEST SWAP2 POP POP SWAP3 SWAP2 POP POP JUMP JUMPDEST PUSH1 0x0 DUP3 DUP3 MSTORE PUSH1 0x20 DUP3 ADD SWAP1 POP SWAP3 SWAP2 POP POP JUMP JUMPDEST PUSH32 0x696E76616C69642070726F6F6600000000000000000000000000000000000000 PUSH1 0x0 DUP3 ADD MSTORE POP JUMP JUMPDEST PUSH1 0x0 PUSH2 0x9B9 PUSH1 0xD DUP4 PUSH2 0x972 JUMP JUMPDEST SWAP2 POP PUSH2 0x9C4 DUP3 PUSH2 0x983 JUMP JUMPDEST PUSH1 0x20 DUP3 ADD SWAP1 POP SWAP2 SWAP1 POP JUMP JUMPDEST PUSH1 0x0 PUSH1 0x20 DUP3 ADD SWAP1 POP DUP2 DUP2 SUB PUSH1 0x0 DUP4 ADD MSTORE PUSH2 0x9E8 DUP2 PUSH2 0x9AC JUMP JUMPDEST SWAP1 POP SWAP2 SWAP1 POP JUMP JUMPDEST PUSH1 0x0 DUP2 MLOAD SWAP1 POP PUSH2 0x9FE DUP2 PUSH2 0x586 JUMP JUMPDEST SWAP3 SWAP2 POP POP JUMP JUMPDEST PUSH1 0x0 DUP1 PUSH1 0x0 DUP1 PUSH1 0x0 DUP1 PUSH1 0x0 DUP1 PUSH2 0x100 DUP10 DUP12 SUB SLT ISZERO PUSH2 0xA25 JUMPI PUSH2 0xA24 PUSH2 0x401 JUMP JUMPDEST JUMPDEST PUSH1 0x0 PUSH2 0xA33 DUP12 DUP3 DUP13 ADD PUSH2 0x9EF JUMP JUMPDEST SWAP9 POP POP PUSH1 0x20 PUSH2 0xA44 DUP12 DUP3 DUP13 ADD PUSH2 0x9EF JUMP JUMPDEST SWAP8 POP POP PUSH1 0x40 PUSH2 0xA55 DUP12 DUP3 DUP13 ADD PUSH2 0x9EF JUMP JUMPDEST SWAP7 POP POP PUSH1 0x60 PUSH2 0xA66 DUP12 DUP3 DUP13 ADD PUSH2 0x9EF JUMP JUMPDEST SWAP6 POP POP PUSH1 0x80 PUSH2 0xA77 DUP12 DUP3 DUP13 ADD PUSH2 0x9EF JUMP JUMPDEST SWAP5 POP POP PUSH1 0xA0 PUSH2 0xA88 DUP12 DUP3 DUP13 ADD PUSH2 0x9EF JUMP JUMPDEST SWAP4 POP POP PUSH1 0xC0 PUSH2 0xA99 DUP12 DUP3 DUP13 ADD PUSH2 0x9EF JUMP JUMPDEST SWAP3 POP POP PUSH1 0xE0 PUSH2 0xAAA DUP12 DUP3 DUP13 ADD PUSH2 0x9EF JUMP JUMPDEST SWAP2 POP POP SWAP3 SWAP6 SWAP9 POP SWAP3 SWAP6 SWAP9 SWAP1 SWAP4 SWAP7 POP JUMP JUMPDEST PUSH32 0x4E487B7100000000000000000000000000000000000000000000000000000000 PUSH1 0x0 MSTORE PUSH1 0x32 PUSH1 0x4 MSTORE PUSH1 0x24 PUSH1 0x0 REVERT INVALID LOG2 PUSH5 0x6970667358 0x22 SLT KECCAK256 BLOCKHASH 0x2F 0x4D SAR PUSH32 0xE03DA1D0666829AEE2E3CDDB982D4EC34FB7A5AE1152AF50F6FA4564736F6C63 NUMBER STOP ADDMOD XOR STOP CALLER "
        },
        "methodIdentifiers": {
          "multiplier()": "1b3ed722",
          "multiplierVerify(bytes,uint256[1])": "d910276d"
        }
      }
    }
  }
}