{
  "contracts/Multiplier.sol": {
    "Multiplier": {
      "abi": [
        {
          "inputs": [
            {
              "internalType": "address",
              "name": "_verifier",
              "type": "address"
            }
          ],
          "stateMutability": "payable",
          "type": "constructor"
        },
        {
          "inputs": [
            {
              "internalType": "bytes",
              "name": "data",
              "type": "bytes"
            }
          ],
          "name": "parseProof",
          "outputs": [
            {
              "internalType": "uint256[2]",
              "name": "a",
              "type": "uint256[2]"
            },
            {
              "internalType": "uint256[2][2]",
              "name": "b",
              "type": "uint256[2][2]"
            },
            {
              "internalType": "uint256[2]",
              "name": "c",
              "type": "uint256[2]"
            }
          ],
          "stateMutability": "pure",
          "type": "function"
        },
        {
          "inputs": [],
          "name": "verifier",
          "outputs": [
            {
              "internalType": "contract Groth16Verifier",
              "name": "",
              "type": "address"
            }
          ],
          "stateMutability": "view",
          "type": "function"
        },
        {
          "inputs": [
            {
              "internalType": "bytes",
              "name": "_proof",
              "type": "bytes"
            },
            {
              "internalType": "uint256[1]",
              "name": "_pubSignals",
              "type": "uint256[1]"
            }
          ],
          "name": "verify",
          "outputs": [],
          "stateMutability": "view",
          "type": "function"
        }
      ],
      "evm": {
        "bytecode": {
          "linkReferences": {},
          "object": "6080604052604051610ce7380380610ce7833981810160405281019061002591906100ce565b806000806101000a81548173ffffffffffffffffffffffffffffffffffffffff021916908373ffffffffffffffffffffffffffffffffffffffff160217905550506100fb565b600080fd5b600073ffffffffffffffffffffffffffffffffffffffff82169050919050565b600061009b82610070565b9050919050565b6100ab81610090565b81146100b657600080fd5b50565b6000815190506100c8816100a2565b92915050565b6000602082840312156100e4576100e361006b565b5b60006100f2848285016100b9565b91505092915050565b610bdd8061010a6000396000f3fe608060405234801561001057600080fd5b50600436106100415760003560e01c80632b7ac3f314610046578063793deea3146100645780637fd8384114610096575b600080fd5b61004e6100b2565b60405161005b9190610419565b60405180910390f35b61007e6004803603810190610079919061058e565b6100d6565b60405161008d9392919061078a565b60405180910390f35b6100b060048036038101906100ab91906108a4565b610251565b005b60008054906101000a900473ffffffffffffffffffffffffffffffffffffffff1681565b6100de61034b565b6100e661036d565b6100ee61034b565b838060200190518101906101029190610915565b8a600060028110610116576101156109cb565b5b602002018b60016002811061012e5761012d6109cb565b5b602002018b600060028110610146576101456109cb565b5b602002015160006002811061015e5761015d6109cb565b5b602002018c600060028110610176576101756109cb565b5b602002015160016002811061018e5761018d6109cb565b5b602002018d6001600281106101a6576101a56109cb565b5b60200201516000600281106101be576101bd6109cb565b5b602002018e6001600281106101d6576101d56109cb565b5b60200201516001600281106101ee576101ed6109cb565b5b602002018e600060028110610206576102056109cb565b5b602002018f60016002811061021e5761021d6109cb565b5b60200201888152508881525088815250888152508881525088815250888152508881525050505050505050509193909250565b600080600061025f856100d6565b92509250925060008054906101000a900473ffffffffffffffffffffffffffffffffffffffff1673ffffffffffffffffffffffffffffffffffffffff166343753b4d848484886040518563ffffffff1660e01b81526004016102c49493929190610a7e565b602060405180830381865afa1580156102e1573d6000803e3d6000fd5b505050506040513d601f19601f820116820180604052508101906103059190610afd565b610344576040517f08c379a000000000000000000000000000000000000000000000000000000000815260040161033b90610b87565b60405180910390fd5b5050505050565b6040518060400160405280600290602082028036833780820191505090505090565b60405180604001604052806002905b61038461034b565b81526020019060019003908161037c5790505090565b600073ffffffffffffffffffffffffffffffffffffffff82169050919050565b6000819050919050565b60006103df6103da6103d58461039a565b6103ba565b61039a565b9050919050565b60006103f1826103c4565b9050919050565b6000610403826103e6565b9050919050565b610413816103f8565b82525050565b600060208201905061042e600083018461040a565b92915050565b6000604051905090565b600080fd5b600080fd5b600080fd5b600080fd5b6000601f19601f8301169050919050565b7f4e487b7100000000000000000000000000000000000000000000000000000000600052604160045260246000fd5b61049b82610452565b810181811067ffffffffffffffff821117156104ba576104b9610463565b5b80604052505050565b60006104cd610434565b90506104d98282610492565b919050565b600067ffffffffffffffff8211156104f9576104f8610463565b5b61050282610452565b9050602081019050919050565b82818337600083830152505050565b600061053161052c846104de565b6104c3565b90508281526020810184848401111561054d5761054c61044d565b5b61055884828561050f565b509392505050565b600082601f83011261057557610574610448565b5b813561058584826020860161051e565b91505092915050565b6000602082840312156105a4576105a361043e565b5b600082013567ffffffffffffffff8111156105c2576105c1610443565b5b6105ce84828501610560565b91505092915050565b600060029050919050565b600081905092915050565b6000819050919050565b6000819050919050565b61060a816105f7565b82525050565b600061061c8383610601565b60208301905092915050565b6000602082019050919050565b61063e816105d7565b61064881846105e2565b9250610653826105ed565b8060005b8381101561068457815161066b8782610610565b965061067683610628565b925050600181019050610657565b505050505050565b600060029050919050565b600081905092915050565b6000819050919050565b600081905092915050565b6106c0816105d7565b6106ca81846106ac565b92506106d5826105ed565b8060005b838110156107065781516106ed8782610610565b96506106f883610628565b9250506001810190506106d9565b505050505050565b600061071a83836106b7565b60408301905092915050565b6000602082019050919050565b61073c8161068c565b6107468184610697565b9250610751826106a2565b8060005b83811015610782578151610769878261070e565b965061077483610726565b925050600181019050610755565b505050505050565b6000610100820190506107a06000830186610635565b6107ad6040830185610733565b6107ba60c0830184610635565b949350505050565b600067ffffffffffffffff8211156107dd576107dc610463565b5b602082029050919050565b600080fd5b6107f6816105f7565b811461080157600080fd5b50565b600081359050610813816107ed565b92915050565b600061082c610827846107c2565b6104c3565b90508060208402830185811115610846576108456107e8565b5b835b8181101561086f578061085b8882610804565b845260208401935050602081019050610848565b5050509392505050565b600082601f83011261088e5761088d610448565b5b600161089b848285610819565b91505092915050565b600080604083850312156108bb576108ba61043e565b5b600083013567ffffffffffffffff8111156108d9576108d8610443565b5b6108e585828601610560565b92505060206108f685828601610879565b9150509250929050565b60008151905061090f816107ed565b92915050565b600080600080600080600080610100898b0312156109365761093561043e565b5b60006109448b828c01610900565b98505060206109558b828c01610900565b97505060406109668b828c01610900565b96505060606109778b828c01610900565b95505060806109888b828c01610900565b94505060a06109998b828c01610900565b93505060c06109aa8b828c01610900565b92505060e06109bb8b828c01610900565b9150509295985092959890939650565b7f4e487b7100000000000000000000000000000000000000000000000000000000600052603260045260246000fd5b600060019050919050565b600081905092915050565b6000819050919050565b6000602082019050919050565b610a30816109fa565b610a3a8184610a05565b9250610a4582610a10565b8060005b83811015610a76578151610a5d8782610610565b9650610a6883610a1a565b925050600181019050610a49565b505050505050565b600061012082019050610a946000830187610635565b610aa16040830186610733565b610aae60c0830185610635565b610abc610100830184610a27565b95945050505050565b60008115159050919050565b610ada81610ac5565b8114610ae557600080fd5b50565b600081519050610af781610ad1565b92915050565b600060208284031215610b1357610b1261043e565b5b6000610b2184828501610ae8565b91505092915050565b600082825260208201905092915050565b7f696e76616c69642070726f6f6600000000000000000000000000000000000000600082015250565b6000610b71600d83610b2a565b9150610b7c82610b3b565b602082019050919050565b60006020820190508181036000830152610ba081610b64565b905091905056fea26469706673582212208ee1eeabe73c6f7ecd4e7f49932dca906f292d766b6553db40e4793033d30ade64736f6c63430008180033",
          "opcodes": "PUSH1 0x80 PUSH1 0x40 MSTORE PUSH1 0x40 MLOAD PUSH2 0xCE7 CODESIZE SUB DUP1 PUSH2 0xCE7 DUP4 CODECOPY DUP2 DUP2 ADD PUSH1 0x40 MSTORE DUP2 ADD SWAP1 PUSH2 0x25 SWAP2 SWAP1 PUSH2 0xCE JUMP JUMPDEST DUP1 PUSH1 0x0 DUP1 PUSH2 0x100 EXP DUP2 SLOAD DUP2 PUSH20 0xFFFFFFFFFFFFFFFFFFFFFFFFFFFFFFFFFFFFFFFF MUL NOT AND SWAP1 DUP4 PUSH20 0xFFFFFFFFFFFFFFFFFFFFFFFFFFFFFFFFFFFFFFFF AND MUL OR SWAP1 SSTORE POP POP PUSH2 0xFB JUMP JUMPDEST PUSH1 0x0 DUP1 REVERT JUMPDEST PUSH1 0x0 PUSH20 0xFFFFFFFFFFFFFFFFFFFFFFFFFFFFFFFFFFFFFFFF DUP3 AND SWAP1 POP SWAP2 SWAP1 POP JUMP JUMPDEST PUSH1 0x0 PUSH2 0x9B DUP3 PUSH2 0x70 JUMP JUMPDEST SWAP1 POP SWAP2 SWAP1 POP JUMP JUMPDEST PUSH2 0xAB DUP2 PUSH2 0x90 JUMP JUMPDEST DUP2 EQ PUSH2 0xB6 JUMPI PUSH1 0x0 DUP1 REVERT JUMPDEST POP JUMP JUMPDEST PUSH1 0x0 DUP2 MLOAD SWAP1 POP PUSH2 0xC8 DUP2 PUSH2 0xA2 JUMP JUMPDEST SWAP3 SWAP2 POP POP JUMP JUMPDEST PUSH1 0x0 PUSH1 0x20 DUP3 DUP5 SUB SLT ISZERO PUSH2 0xE4 JUMPI PUSH2 0xE3 PUSH2 0x6B JUMP JUMPDEST JUMPDEST PUSH1 0x0 PUSH2 0xF2 DUP5 DUP3 DUP6 ADD PUSH2 0xB9 JUMP JUMPDEST SWAP2 POP POP SWAP3 SWAP2 POP POP JUMP JUMPDEST PUSH2 0xBDD DUP1 PUSH2 0x10A PUSH1 0x0 CODECOPY PUSH1 0x0 RETURN INVALID PUSH1 0x80 PUSH1 0x40 MSTORE CALLVALUE DUP1 ISZERO PUSH2 0x10 JUMPI PUSH1 0x0 DUP1 REVERT JUMPDEST POP PUSH1 0x4 CALLDATASIZE LT PUSH2 0x41 JUMPI PUSH1 0x0 CALLDATALOAD PUSH1 0xE0 SHR DUP1 PUSH4 0x2B7AC3F3 EQ PUSH2 0x46 JUMPI DUP1 PUSH4 0x793DEEA3 EQ PUSH2 0x64 JUMPI DUP1 PUSH4 0x7FD83841 EQ PUSH2 0x96 JUMPI JUMPDEST PUSH1 0x0 DUP1 REVERT JUMPDEST PUSH2 0x4E PUSH2 0xB2 JUMP JUMPDEST PUSH1 0x40 MLOAD PUSH2 0x5B SWAP2 SWAP1 PUSH2 0x419 JUMP JUMPDEST PUSH1 0x40 MLOAD DUP1 SWAP2 SUB SWAP1 RETURN JUMPDEST PUSH2 0x7E PUSH1 0x4 DUP1 CALLDATASIZE SUB DUP2 ADD SWAP1 PUSH2 0x79 SWAP2 SWAP1 PUSH2 0x58E JUMP JUMPDEST PUSH2 0xD6 JUMP JUMPDEST PUSH1 0x40 MLOAD PUSH2 0x8D SWAP4 SWAP3 SWAP2 SWAP1 PUSH2 0x78A JUMP JUMPDEST PUSH1 0x40 MLOAD DUP1 SWAP2 SUB SWAP1 RETURN JUMPDEST PUSH2 0xB0 PUSH1 0x4 DUP1 CALLDATASIZE SUB DUP2 ADD SWAP1 PUSH2 0xAB SWAP2 SWAP1 PUSH2 0x8A4 JUMP JUMPDEST PUSH2 0x251 JUMP JUMPDEST STOP JUMPDEST PUSH1 0x0 DUP1 SLOAD SWAP1 PUSH2 0x100 EXP SWAP1 DIV PUSH20 0xFFFFFFFFFFFFFFFFFFFFFFFFFFFFFFFFFFFFFFFF AND DUP2 JUMP JUMPDEST PUSH2 0xDE PUSH2 0x34B JUMP JUMPDEST PUSH2 0xE6 PUSH2 0x36D JUMP JUMPDEST PUSH2 0xEE PUSH2 0x34B JUMP JUMPDEST DUP4 DUP1 PUSH1 0x20 ADD SWAP1 MLOAD DUP2 ADD SWAP1 PUSH2 0x102 SWAP2 SWAP1 PUSH2 0x915 JUMP JUMPDEST DUP11 PUSH1 0x0 PUSH1 0x2 DUP2 LT PUSH2 0x116 JUMPI PUSH2 0x115 PUSH2 0x9CB JUMP JUMPDEST JUMPDEST PUSH1 0x20 MUL ADD DUP12 PUSH1 0x1 PUSH1 0x2 DUP2 LT PUSH2 0x12E JUMPI PUSH2 0x12D PUSH2 0x9CB JUMP JUMPDEST JUMPDEST PUSH1 0x20 MUL ADD DUP12 PUSH1 0x0 PUSH1 0x2 DUP2 LT PUSH2 0x146 JUMPI PUSH2 0x145 PUSH2 0x9CB JUMP JUMPDEST JUMPDEST PUSH1 0x20 MUL ADD MLOAD PUSH1 0x0 PUSH1 0x2 DUP2 LT PUSH2 0x15E JUMPI PUSH2 0x15D PUSH2 0x9CB JUMP JUMPDEST JUMPDEST PUSH1 0x20 MUL ADD DUP13 PUSH1 0x0 PUSH1 0x2 DUP2 LT PUSH2 0x176 JUMPI PUSH2 0x175 PUSH2 0x9CB JUMP JUMPDEST JUMPDEST PUSH1 0x20 MUL ADD MLOAD PUSH1 0x1 PUSH1 0x2 DUP2 LT PUSH2 0x18E JUMPI PUSH2 0x18D PUSH2 0x9CB JUMP JUMPDEST JUMPDEST PUSH1 0x20 MUL ADD DUP14 PUSH1 0x1 PUSH1 0x2 DUP2 LT PUSH2 0x1A6 JUMPI PUSH2 0x1A5 PUSH2 0x9CB JUMP JUMPDEST JUMPDEST PUSH1 0x20 MUL ADD MLOAD PUSH1 0x0 PUSH1 0x2 DUP2 LT PUSH2 0x1BE JUMPI PUSH2 0x1BD PUSH2 0x9CB JUMP JUMPDEST JUMPDEST PUSH1 0x20 MUL ADD DUP15 PUSH1 0x1 PUSH1 0x2 DUP2 LT PUSH2 0x1D6 JUMPI PUSH2 0x1D5 PUSH2 0x9CB JUMP JUMPDEST JUMPDEST PUSH1 0x20 MUL ADD MLOAD PUSH1 0x1 PUSH1 0x2 DUP2 LT PUSH2 0x1EE JUMPI PUSH2 0x1ED PUSH2 0x9CB JUMP JUMPDEST JUMPDEST PUSH1 0x20 MUL ADD DUP15 PUSH1 0x0 PUSH1 0x2 DUP2 LT PUSH2 0x206 JUMPI PUSH2 0x205 PUSH2 0x9CB JUMP JUMPDEST JUMPDEST PUSH1 0x20 MUL ADD DUP16 PUSH1 0x1 PUSH1 0x2 DUP2 LT PUSH2 0x21E JUMPI PUSH2 0x21D PUSH2 0x9CB JUMP JUMPDEST JUMPDEST PUSH1 0x20 MUL ADD DUP9 DUP2 MSTORE POP DUP9 DUP2 MSTORE POP DUP9 DUP2 MSTORE POP DUP9 DUP2 MSTORE POP DUP9 DUP2 MSTORE POP DUP9 DUP2 MSTORE POP DUP9 DUP2 MSTORE POP DUP9 DUP2 MSTORE POP POP POP POP POP POP POP POP POP SWAP2 SWAP4 SWAP1 SWAP3 POP JUMP JUMPDEST PUSH1 0x0 DUP1 PUSH1 0x0 PUSH2 0x25F DUP6 PUSH2 0xD6 JUMP JUMPDEST SWAP3 POP SWAP3 POP SWAP3 POP PUSH1 0x0 DUP1 SLOAD SWAP1 PUSH2 0x100 EXP SWAP1 DIV PUSH20 0xFFFFFFFFFFFFFFFFFFFFFFFFFFFFFFFFFFFFFFFF AND PUSH20 0xFFFFFFFFFFFFFFFFFFFFFFFFFFFFFFFFFFFFFFFF AND PUSH4 0x43753B4D DUP5 DUP5 DUP5 DUP9 PUSH1 0x40 MLOAD DUP6 PUSH4 0xFFFFFFFF AND PUSH1 0xE0 SHL DUP2 MSTORE PUSH1 0x4 ADD PUSH2 0x2C4 SWAP5 SWAP4 SWAP3 SWAP2 SWAP1 PUSH2 0xA7E JUMP JUMPDEST PUSH1 0x20 PUSH1 0x40 MLOAD DUP1 DUP4 SUB DUP2 DUP7 GAS STATICCALL ISZERO DUP1 ISZERO PUSH2 0x2E1 JUMPI RETURNDATASIZE PUSH1 0x0 DUP1 RETURNDATACOPY RETURNDATASIZE PUSH1 0x0 REVERT JUMPDEST POP POP POP POP PUSH1 0x40 MLOAD RETURNDATASIZE PUSH1 0x1F NOT PUSH1 0x1F DUP3 ADD AND DUP3 ADD DUP1 PUSH1 0x40 MSTORE POP DUP2 ADD SWAP1 PUSH2 0x305 SWAP2 SWAP1 PUSH2 0xAFD JUMP JUMPDEST PUSH2 0x344 JUMPI PUSH1 0x40 MLOAD PUSH32 0x8C379A000000000000000000000000000000000000000000000000000000000 DUP2 MSTORE PUSH1 0x4 ADD PUSH2 0x33B SWAP1 PUSH2 0xB87 JUMP JUMPDEST PUSH1 0x40 MLOAD DUP1 SWAP2 SUB SWAP1 REVERT JUMPDEST POP POP POP POP POP JUMP JUMPDEST PUSH1 0x40 MLOAD DUP1 PUSH1 0x40 ADD PUSH1 0x40 MSTORE DUP1 PUSH1 0x2 SWAP1 PUSH1 0x20 DUP3 MUL DUP1 CALLDATASIZE DUP4 CALLDATACOPY DUP1 DUP3 ADD SWAP2 POP POP SWAP1 POP POP SWAP1 JUMP JUMPDEST PUSH1 0x40 MLOAD DUP1 PUSH1 0x40 ADD PUSH1 0x40 MSTORE DUP1 PUSH1 0x2 SWAP1 JUMPDEST PUSH2 0x384 PUSH2 0x34B JUMP JUMPDEST DUP2 MSTORE PUSH1 0x20 ADD SWAP1 PUSH1 0x1 SWAP1 SUB SWAP1 DUP2 PUSH2 0x37C JUMPI SWAP1 POP POP SWAP1 JUMP JUMPDEST PUSH1 0x0 PUSH20 0xFFFFFFFFFFFFFFFFFFFFFFFFFFFFFFFFFFFFFFFF DUP3 AND SWAP1 POP SWAP2 SWAP1 POP JUMP JUMPDEST PUSH1 0x0 DUP2 SWAP1 POP SWAP2 SWAP1 POP JUMP JUMPDEST PUSH1 0x0 PUSH2 0x3DF PUSH2 0x3DA PUSH2 0x3D5 DUP5 PUSH2 0x39A JUMP JUMPDEST PUSH2 0x3BA JUMP JUMPDEST PUSH2 0x39A JUMP JUMPDEST SWAP1 POP SWAP2 SWAP1 POP JUMP JUMPDEST PUSH1 0x0 PUSH2 0x3F1 DUP3 PUSH2 0x3C4 JUMP JUMPDEST SWAP1 POP SWAP2 SWAP1 POP JUMP JUMPDEST PUSH1 0x0 PUSH2 0x403 DUP3 PUSH2 0x3E6 JUMP JUMPDEST SWAP1 POP SWAP2 SWAP1 POP JUMP JUMPDEST PUSH2 0x413 DUP2 PUSH2 0x3F8 JUMP JUMPDEST DUP3 MSTORE POP POP JUMP JUMPDEST PUSH1 0x0 PUSH1 0x20 DUP3 ADD SWAP1 POP PUSH2 0x42E PUSH1 0x0 DUP4 ADD DUP5 PUSH2 0x40A JUMP JUMPDEST SWAP3 SWAP2 POP POP JUMP JUMPDEST PUSH1 0x0 PUSH1 0x40 MLOAD SWAP1 POP SWAP1 JUMP JUMPDEST PUSH1 0x0 DUP1 REVERT JUMPDEST PUSH1 0x0 DUP1 REVERT JUMPDEST PUSH1 0x0 DUP1 REVERT JUMPDEST PUSH1 0x0 DUP1 REVERT JUMPDEST PUSH1 0x0 PUSH1 0x1F NOT PUSH1 0x1F DUP4 ADD AND SWAP1 POP SWAP2 SWAP1 POP JUMP JUMPDEST PUSH32 0x4E487B7100000000000000000000000000000000000000000000000000000000 PUSH1 0x0 MSTORE PUSH1 0x41 PUSH1 0x4 MSTORE PUSH1 0x24 PUSH1 0x0 REVERT JUMPDEST PUSH2 0x49B DUP3 PUSH2 0x452 JUMP JUMPDEST DUP2 ADD DUP2 DUP2 LT PUSH8 0xFFFFFFFFFFFFFFFF DUP3 GT OR ISZERO PUSH2 0x4BA JUMPI PUSH2 0x4B9 PUSH2 0x463 JUMP JUMPDEST JUMPDEST DUP1 PUSH1 0x40 MSTORE POP POP POP JUMP JUMPDEST PUSH1 0x0 PUSH2 0x4CD PUSH2 0x434 JUMP JUMPDEST SWAP1 POP PUSH2 0x4D9 DUP3 DUP3 PUSH2 0x492 JUMP JUMPDEST SWAP2 SWAP1 POP JUMP JUMPDEST PUSH1 0x0 PUSH8 0xFFFFFFFFFFFFFFFF DUP3 GT ISZERO PUSH2 0x4F9 JUMPI PUSH2 0x4F8 PUSH2 0x463 JUMP JUMPDEST JUMPDEST PUSH2 0x502 DUP3 PUSH2 0x452 JUMP JUMPDEST SWAP1 POP PUSH1 0x20 DUP2 ADD SWAP1 POP SWAP2 SWAP1 POP JUMP JUMPDEST DUP3 DUP2 DUP4 CALLDATACOPY PUSH1 0x0 DUP4 DUP4 ADD MSTORE POP POP POP JUMP JUMPDEST PUSH1 0x0 PUSH2 0x531 PUSH2 0x52C DUP5 PUSH2 0x4DE JUMP JUMPDEST PUSH2 0x4C3 JUMP JUMPDEST SWAP1 POP DUP3 DUP2 MSTORE PUSH1 0x20 DUP2 ADD DUP5 DUP5 DUP5 ADD GT ISZERO PUSH2 0x54D JUMPI PUSH2 0x54C PUSH2 0x44D JUMP JUMPDEST JUMPDEST PUSH2 0x558 DUP5 DUP3 DUP6 PUSH2 0x50F JUMP JUMPDEST POP SWAP4 SWAP3 POP POP POP JUMP JUMPDEST PUSH1 0x0 DUP3 PUSH1 0x1F DUP4 ADD SLT PUSH2 0x575 JUMPI PUSH2 0x574 PUSH2 0x448 JUMP JUMPDEST JUMPDEST DUP2 CALLDATALOAD PUSH2 0x585 DUP5 DUP3 PUSH1 0x20 DUP7 ADD PUSH2 0x51E JUMP JUMPDEST SWAP2 POP POP SWAP3 SWAP2 POP POP JUMP JUMPDEST PUSH1 0x0 PUSH1 0x20 DUP3 DUP5 SUB SLT ISZERO PUSH2 0x5A4 JUMPI PUSH2 0x5A3 PUSH2 0x43E JUMP JUMPDEST JUMPDEST PUSH1 0x0 DUP3 ADD CALLDATALOAD PUSH8 0xFFFFFFFFFFFFFFFF DUP2 GT ISZERO PUSH2 0x5C2 JUMPI PUSH2 0x5C1 PUSH2 0x443 JUMP JUMPDEST JUMPDEST PUSH2 0x5CE DUP5 DUP3 DUP6 ADD PUSH2 0x560 JUMP JUMPDEST SWAP2 POP POP SWAP3 SWAP2 POP POP JUMP JUMPDEST PUSH1 0x0 PUSH1 0x2 SWAP1 POP SWAP2 SWAP1 POP JUMP JUMPDEST PUSH1 0x0 DUP2 SWAP1 POP SWAP3 SWAP2 POP POP JUMP JUMPDEST PUSH1 0x0 DUP2 SWAP1 POP SWAP2 SWAP1 POP JUMP JUMPDEST PUSH1 0x0 DUP2 SWAP1 POP SWAP2 SWAP1 POP JUMP JUMPDEST PUSH2 0x60A DUP2 PUSH2 0x5F7 JUMP JUMPDEST DUP3 MSTORE POP POP JUMP JUMPDEST PUSH1 0x0 PUSH2 0x61C DUP4 DUP4 PUSH2 0x601 JUMP JUMPDEST PUSH1 0x20 DUP4 ADD SWAP1 POP SWAP3 SWAP2 POP POP JUMP JUMPDEST PUSH1 0x0 PUSH1 0x20 DUP3 ADD SWAP1 POP SWAP2 SWAP1 POP JUMP JUMPDEST PUSH2 0x63E DUP2 PUSH2 0x5D7 JUMP JUMPDEST PUSH2 0x648 DUP2 DUP5 PUSH2 0x5E2 JUMP JUMPDEST SWAP3 POP PUSH2 0x653 DUP3 PUSH2 0x5ED JUMP JUMPDEST DUP1 PUSH1 0x0 JUMPDEST DUP4 DUP2 LT ISZERO PUSH2 0x684 JUMPI DUP2 MLOAD PUSH2 0x66B DUP8 DUP3 PUSH2 0x610 JUMP JUMPDEST SWAP7 POP PUSH2 0x676 DUP4 PUSH2 0x628 JUMP JUMPDEST SWAP3 POP POP PUSH1 0x1 DUP2 ADD SWAP1 POP PUSH2 0x657 JUMP JUMPDEST POP POP POP POP POP POP JUMP JUMPDEST PUSH1 0x0 PUSH1 0x2 SWAP1 POP SWAP2 SWAP1 POP JUMP JUMPDEST PUSH1 0x0 DUP2 SWAP1 POP SWAP3 SWAP2 POP POP JUMP JUMPDEST PUSH1 0x0 DUP2 SWAP1 POP SWAP2 SWAP1 POP JUMP JUMPDEST PUSH1 0x0 DUP2 SWAP1 POP SWAP3 SWAP2 POP POP JUMP JUMPDEST PUSH2 0x6C0 DUP2 PUSH2 0x5D7 JUMP JUMPDEST PUSH2 0x6CA DUP2 DUP5 PUSH2 0x6AC JUMP JUMPDEST SWAP3 POP PUSH2 0x6D5 DUP3 PUSH2 0x5ED JUMP JUMPDEST DUP1 PUSH1 0x0 JUMPDEST DUP4 DUP2 LT ISZERO PUSH2 0x706 JUMPI DUP2 MLOAD PUSH2 0x6ED DUP8 DUP3 PUSH2 0x610 JUMP JUMPDEST SWAP7 POP PUSH2 0x6F8 DUP4 PUSH2 0x628 JUMP JUMPDEST SWAP3 POP POP PUSH1 0x1 DUP2 ADD SWAP1 POP PUSH2 0x6D9 JUMP JUMPDEST POP POP POP POP POP POP JUMP JUMPDEST PUSH1 0x0 PUSH2 0x71A DUP4 DUP4 PUSH2 0x6B7 JUMP JUMPDEST PUSH1 0x40 DUP4 ADD SWAP1 POP SWAP3 SWAP2 POP POP JUMP JUMPDEST PUSH1 0x0 PUSH1 0x20 DUP3 ADD SWAP1 POP SWAP2 SWAP1 POP JUMP JUMPDEST PUSH2 0x73C DUP2 PUSH2 0x68C JUMP JUMPDEST PUSH2 0x746 DUP2 DUP5 PUSH2 0x697 JUMP JUMPDEST SWAP3 POP PUSH2 0x751 DUP3 PUSH2 0x6A2 JUMP JUMPDEST DUP1 PUSH1 0x0 JUMPDEST DUP4 DUP2 LT ISZERO PUSH2 0x782 JUMPI DUP2 MLOAD PUSH2 0x769 DUP8 DUP3 PUSH2 0x70E JUMP JUMPDEST SWAP7 POP PUSH2 0x774 DUP4 PUSH2 0x726 JUMP JUMPDEST SWAP3 POP POP PUSH1 0x1 DUP2 ADD SWAP1 POP PUSH2 0x755 JUMP JUMPDEST POP POP POP POP POP POP JUMP JUMPDEST PUSH1 0x0 PUSH2 0x100 DUP3 ADD SWAP1 POP PUSH2 0x7A0 PUSH1 0x0 DUP4 ADD DUP7 PUSH2 0x635 JUMP JUMPDEST PUSH2 0x7AD PUSH1 0x40 DUP4 ADD DUP6 PUSH2 0x733 JUMP JUMPDEST PUSH2 0x7BA PUSH1 0xC0 DUP4 ADD DUP5 PUSH2 0x635 JUMP JUMPDEST SWAP5 SWAP4 POP POP POP POP JUMP JUMPDEST PUSH1 0x0 PUSH8 0xFFFFFFFFFFFFFFFF DUP3 GT ISZERO PUSH2 0x7DD JUMPI PUSH2 0x7DC PUSH2 0x463 JUMP JUMPDEST JUMPDEST PUSH1 0x20 DUP3 MUL SWAP1 POP SWAP2 SWAP1 POP JUMP JUMPDEST PUSH1 0x0 DUP1 REVERT JUMPDEST PUSH2 0x7F6 DUP2 PUSH2 0x5F7 JUMP JUMPDEST DUP2 EQ PUSH2 0x801 JUMPI PUSH1 0x0 DUP1 REVERT JUMPDEST POP JUMP JUMPDEST PUSH1 0x0 DUP2 CALLDATALOAD SWAP1 POP PUSH2 0x813 DUP2 PUSH2 0x7ED JUMP JUMPDEST SWAP3 SWAP2 POP POP JUMP JUMPDEST PUSH1 0x0 PUSH2 0x82C PUSH2 0x827 DUP5 PUSH2 0x7C2 JUMP JUMPDEST PUSH2 0x4C3 JUMP JUMPDEST SWAP1 POP DUP1 PUSH1 0x20 DUP5 MUL DUP4 ADD DUP6 DUP2 GT ISZERO PUSH2 0x846 JUMPI PUSH2 0x845 PUSH2 0x7E8 JUMP JUMPDEST JUMPDEST DUP4 JUMPDEST DUP2 DUP2 LT ISZERO PUSH2 0x86F JUMPI DUP1 PUSH2 0x85B DUP9 DUP3 PUSH2 0x804 JUMP JUMPDEST DUP5 MSTORE PUSH1 0x20 DUP5 ADD SWAP4 POP POP PUSH1 0x20 DUP2 ADD SWAP1 POP PUSH2 0x848 JUMP JUMPDEST POP POP POP SWAP4 SWAP3 POP POP POP JUMP JUMPDEST PUSH1 0x0 DUP3 PUSH1 0x1F DUP4 ADD SLT PUSH2 0x88E JUMPI PUSH2 0x88D PUSH2 0x448 JUMP JUMPDEST JUMPDEST PUSH1 0x1 PUSH2 0x89B DUP5 DUP3 DUP6 PUSH2 0x819 JUMP JUMPDEST SWAP2 POP POP SWAP3 SWAP2 POP POP JUMP JUMPDEST PUSH1 0x0 DUP1 PUSH1 0x40 DUP4 DUP6 SUB SLT ISZERO PUSH2 0x8BB JUMPI PUSH2 0x8BA PUSH2 0x43E JUMP JUMPDEST JUMPDEST PUSH1 0x0 DUP4 ADD CALLDATALOAD PUSH8 0xFFFFFFFFFFFFFFFF DUP2 GT ISZERO PUSH2 0x8D9 JUMPI PUSH2 0x8D8 PUSH2 0x443 JUMP JUMPDEST JUMPDEST PUSH2 0x8E5 DUP6 DUP3 DUP7 ADD PUSH2 0x560 JUMP JUMPDEST SWAP3 POP POP PUSH1 0x20 PUSH2 0x8F6 DUP6 DUP3 DUP7 ADD PUSH2 0x879 JUMP JUMPDEST SWAP2 POP POP SWAP3 POP SWAP3 SWAP1 POP JUMP JUMPDEST PUSH1 0x0 DUP2 MLOAD SWAP1 POP PUSH2 0x90F DUP2 PUSH2 0x7ED JUMP JUMPDEST SWAP3 SWAP2 POP POP JUMP JUMPDEST PUSH1 0x0 DUP1 PUSH1 0x0 DUP1 PUSH1 0x0 DUP1 PUSH1 0x0 DUP1 PUSH2 0x100 DUP10 DUP12 SUB SLT ISZERO PUSH2 0x936 JUMPI PUSH2 0x935 PUSH2 0x43E JUMP JUMPDEST JUMPDEST PUSH1 0x0 PUSH2 0x944 DUP12 DUP3 DUP13 ADD PUSH2 0x900 JUMP JUMPDEST SWAP9 POP POP PUSH1 0x20 PUSH2 0x955 DUP12 DUP3 DUP13 ADD PUSH2 0x900 JUMP JUMPDEST SWAP8 POP POP PUSH1 0x40 PUSH2 0x966 DUP12 DUP3 DUP13 ADD PUSH2 0x900 JUMP JUMPDEST SWAP7 POP POP PUSH1 0x60 PUSH2 0x977 DUP12 DUP3 DUP13 ADD PUSH2 0x900 JUMP JUMPDEST SWAP6 POP POP PUSH1 0x80 PUSH2 0x988 DUP12 DUP3 DUP13 ADD PUSH2 0x900 JUMP JUMPDEST SWAP5 POP POP PUSH1 0xA0 PUSH2 0x999 DUP12 DUP3 DUP13 ADD PUSH2 0x900 JUMP JUMPDEST SWAP4 POP POP PUSH1 0xC0 PUSH2 0x9AA DUP12 DUP3 DUP13 ADD PUSH2 0x900 JUMP JUMPDEST SWAP3 POP POP PUSH1 0xE0 PUSH2 0x9BB DUP12 DUP3 DUP13 ADD PUSH2 0x900 JUMP JUMPDEST SWAP2 POP POP SWAP3 SWAP6 SWAP9 POP SWAP3 SWAP6 SWAP9 SWAP1 SWAP4 SWAP7 POP JUMP JUMPDEST PUSH32 0x4E487B7100000000000000000000000000000000000000000000000000000000 PUSH1 0x0 MSTORE PUSH1 0x32 PUSH1 0x4 MSTORE PUSH1 0x24 PUSH1 0x0 REVERT JUMPDEST PUSH1 0x0 PUSH1 0x1 SWAP1 POP SWAP2 SWAP1 POP JUMP JUMPDEST PUSH1 0x0 DUP2 SWAP1 POP SWAP3 SWAP2 POP POP JUMP JUMPDEST PUSH1 0x0 DUP2 SWAP1 POP SWAP2 SWAP1 POP JUMP JUMPDEST PUSH1 0x0 PUSH1 0x20 DUP3 ADD SWAP1 POP SWAP2 SWAP1 POP JUMP JUMPDEST PUSH2 0xA30 DUP2 PUSH2 0x9FA JUMP JUMPDEST PUSH2 0xA3A DUP2 DUP5 PUSH2 0xA05 JUMP JUMPDEST SWAP3 POP PUSH2 0xA45 DUP3 PUSH2 0xA10 JUMP JUMPDEST DUP1 PUSH1 0x0 JUMPDEST DUP4 DUP2 LT ISZERO PUSH2 0xA76 JUMPI DUP2 MLOAD PUSH2 0xA5D DUP8 DUP3 PUSH2 0x610 JUMP JUMPDEST SWAP7 POP PUSH2 0xA68 DUP4 PUSH2 0xA1A JUMP JUMPDEST SWAP3 POP POP PUSH1 0x1 DUP2 ADD SWAP1 POP PUSH2 0xA49 JUMP JUMPDEST POP POP POP POP POP POP JUMP JUMPDEST PUSH1 0x0 PUSH2 0x120 DUP3 ADD SWAP1 POP PUSH2 0xA94 PUSH1 0x0 DUP4 ADD DUP8 PUSH2 0x635 JUMP JUMPDEST PUSH2 0xAA1 PUSH1 0x40 DUP4 ADD DUP7 PUSH2 0x733 JUMP JUMPDEST PUSH2 0xAAE PUSH1 0xC0 DUP4 ADD DUP6 PUSH2 0x635 JUMP JUMPDEST PUSH2 0xABC PUSH2 0x100 DUP4 ADD DUP5 PUSH2 0xA27 JUMP JUMPDEST SWAP6 SWAP5 POP POP POP POP POP JUMP JUMPDEST PUSH1 0x0 DUP2 ISZERO ISZERO SWAP1 POP SWAP2 SWAP1 POP JUMP JUMPDEST PUSH2 0xADA DUP2 PUSH2 0xAC5 JUMP JUMPDEST DUP2 EQ PUSH2 0xAE5 JUMPI PUSH1 0x0 DUP1 REVERT JUMPDEST POP JUMP JUMPDEST PUSH1 0x0 DUP2 MLOAD SWAP1 POP PUSH2 0xAF7 DUP2 PUSH2 0xAD1 JUMP JUMPDEST SWAP3 SWAP2 POP POP JUMP JUMPDEST PUSH1 0x0 PUSH1 0x20 DUP3 DUP5 SUB SLT ISZERO PUSH2 0xB13 JUMPI PUSH2 0xB12 PUSH2 0x43E JUMP JUMPDEST JUMPDEST PUSH1 0x0 PUSH2 0xB21 DUP5 DUP3 DUP6 ADD PUSH2 0xAE8 JUMP JUMPDEST SWAP2 POP POP SWAP3 SWAP2 POP POP JUMP JUMPDEST PUSH1 0x0 DUP3 DUP3 MSTORE PUSH1 0x20 DUP3 ADD SWAP1 POP SWAP3 SWAP2 POP POP JUMP JUMPDEST PUSH32 0x696E76616C69642070726F6F6600000000000000000000000000000000000000 PUSH1 0x0 DUP3 ADD MSTORE POP JUMP JUMPDEST PUSH1 0x0 PUSH2 0xB71 PUSH1 0xD DUP4 PUSH2 0xB2A JUMP JUMPDEST SWAP2 POP PUSH2 0xB7C DUP3 PUSH2 0xB3B JUMP JUMPDEST PUSH1 0x20 DUP3 ADD SWAP1 POP SWAP2 SWAP1 POP JUMP JUMPDEST PUSH1 0x0 PUSH1 0x20 DUP3 ADD SWAP1 POP DUP2 DUP2 SUB PUSH1 0x0 DUP4 ADD MSTORE PUSH2 0xBA0 DUP2 PUSH2 0xB64 JUMP JUMPDEST SWAP1 POP SWAP2 SWAP1 POP JUMP INVALID LOG2 PUSH5 0x6970667358 0x22 SLT KECCAK256 DUP15 0xE1 0xEE 0xAB 0xE7 EXTCODECOPY PUSH16 0x7ECD4E7F49932DCA906F292D766B6553 0xDB BLOCKHASH 0xE4 PUSH26 0x3033D30ADE64736F6C6343000818003300000000000000000000 "
        },
        "methodIdentifiers": {
          "parseProof(bytes)": "793deea3",
          "verifier()": "2b7ac3f3",
          "verify(bytes,uint256[1])": "7fd83841"
        }
      }
    }
  }
}