{
  "_format": "hh-sol-artifact-1",
  "contractName": "CircomExample",
  "sourceName": "contracts/CircomExample.sol",
  "abi": [
    {
      "inputs": [
        {
          "internalType": "address",
          "name": "_multiplier",
          "type": "address"
        }
      ],
      "stateMutability": "payable",
      "type": "constructor"
    },
    {
      "inputs": [],
      "name": "multiplier",
      "outputs": [
        {
          "internalType": "contract MultiplierVerifier",
          "name": "",
          "type": "address"
        }
      ],
      "stateMutability": "view",
      "type": "function"
    },
    {
      "inputs": [
        {
          "internalType": "bytes",
          "name": "_proof",
          "type": "bytes"
        },
        {
          "internalType": "uint256[1]",
          "name": "_pubSignals",
          "type": "uint256[1]"
        }
      ],
      "name": "multiplierVerify",
      "outputs": [],
      "stateMutability": "view",
      "type": "function"
    }
  ],
  "bytecode": "0x6080604052604051610c29380380610c29833981810160405281019061002591906100ce565b806000806101000a81548173ffffffffffffffffffffffffffffffffffffffff021916908373ffffffffffffffffffffffffffffffffffffffff160217905550506100fb565b600080fd5b600073ffffffffffffffffffffffffffffffffffffffff82169050919050565b600061009b82610070565b9050919050565b6100ab81610090565b81146100b657600080fd5b50565b6000815190506100c8816100a2565b92915050565b6000602082840312156100e4576100e361006b565b5b60006100f2848285016100b9565b91505092915050565b610b1f8061010a6000396000f3fe608060405234801561001057600080fd5b50600436106100365760003560e01c80631b3ed7221461003b578063d910276d14610059575b600080fd5b610043610075565b60405161005091906103dc565b60405180910390f35b610073600480360381019061006e919061063d565b610099565b005b60008054906101000a900473ffffffffffffffffffffffffffffffffffffffff1681565b60008060006100a785610193565b92509250925060008054906101000a900473ffffffffffffffffffffffffffffffffffffffff1673ffffffffffffffffffffffffffffffffffffffff166343753b4d848484886040518563ffffffff1660e01b815260040161010c94939291906108c6565b602060405180830381865afa158015610129573d6000803e3d6000fd5b505050506040513d601f19601f8201168201806040525081019061014d9190610945565b61018c576040517f08c379a0000000000000000000000000000000000000000000000000000000008152600401610183906109cf565b60405180910390fd5b5050505050565b61019b61030e565b6101a3610330565b6101ab61030e565b838060200190518101906101bf9190610a04565b8a6000600281106101d3576101d2610aba565b5b602002018b6001600281106101eb576101ea610aba565b5b602002018b60006002811061020357610202610aba565b5b602002015160006002811061021b5761021a610aba565b5b602002018c60006002811061023357610232610aba565b5b602002015160016002811061024b5761024a610aba565b5b602002018d60016002811061026357610262610aba565b5b602002015160006002811061027b5761027a610aba565b5b602002018e60016002811061029357610292610aba565b5b60200201516001600281106102ab576102aa610aba565b5b602002018e6000600281106102c3576102c2610aba565b5b602002018f6001600281106102db576102da610aba565b5b60200201888152508881525088815250888152508881525088815250888152508881525050505050505050509193909250565b6040518060400160405280600290602082028036833780820191505090505090565b60405180604001604052806002905b61034761030e565b81526020019060019003908161033f5790505090565b600073ffffffffffffffffffffffffffffffffffffffff82169050919050565b6000819050919050565b60006103a261039d6103988461035d565b61037d565b61035d565b9050919050565b60006103b482610387565b9050919050565b60006103c6826103a9565b9050919050565b6103d6816103bb565b82525050565b60006020820190506103f160008301846103cd565b92915050565b6000604051905090565b600080fd5b600080fd5b600080fd5b600080fd5b6000601f19601f8301169050919050565b7f4e487b7100000000000000000000000000000000000000000000000000000000600052604160045260246000fd5b61045e82610415565b810181811067ffffffffffffffff8211171561047d5761047c610426565b5b80604052505050565b60006104906103f7565b905061049c8282610455565b919050565b600067ffffffffffffffff8211156104bc576104bb610426565b5b6104c582610415565b9050602081019050919050565b82818337600083830152505050565b60006104f46104ef846104a1565b610486565b9050828152602081018484840111156105105761050f610410565b5b61051b8482856104d2565b509392505050565b600082601f8301126105385761053761040b565b5b81356105488482602086016104e1565b91505092915050565b600067ffffffffffffffff82111561056c5761056b610426565b5b602082029050919050565b600080fd5b6000819050919050565b61058f8161057c565b811461059a57600080fd5b50565b6000813590506105ac81610586565b92915050565b60006105c56105c084610551565b610486565b905080602084028301858111156105df576105de610577565b5b835b8181101561060857806105f4888261059d565b8452602084019350506020810190506105e1565b5050509392505050565b600082601f8301126106275761062661040b565b5b60016106348482856105b2565b91505092915050565b6000806040838503121561065457610653610401565b5b600083013567ffffffffffffffff81111561067257610671610406565b5b61067e85828601610523565b925050602061068f85828601610612565b9150509250929050565b600060029050919050565b600081905092915050565b6000819050919050565b6106c28161057c565b82525050565b60006106d483836106b9565b60208301905092915050565b6000602082019050919050565b6106f681610699565b61070081846106a4565b925061070b826106af565b8060005b8381101561073c57815161072387826106c8565b965061072e836106e0565b92505060018101905061070f565b505050505050565b600060029050919050565b600081905092915050565b6000819050919050565b600081905092915050565b61077881610699565b6107828184610764565b925061078d826106af565b8060005b838110156107be5781516107a587826106c8565b96506107b0836106e0565b925050600181019050610791565b505050505050565b60006107d2838361076f565b60408301905092915050565b6000602082019050919050565b6107f481610744565b6107fe818461074f565b92506108098261075a565b8060005b8381101561083a57815161082187826107c6565b965061082c836107de565b92505060018101905061080d565b505050505050565b600060019050919050565b600081905092915050565b6000819050919050565b6000602082019050919050565b61087881610842565b610882818461084d565b925061088d82610858565b8060005b838110156108be5781516108a587826106c8565b96506108b083610862565b925050600181019050610891565b505050505050565b6000610120820190506108dc60008301876106ed565b6108e960408301866107eb565b6108f660c08301856106ed565b61090461010083018461086f565b95945050505050565b60008115159050919050565b6109228161090d565b811461092d57600080fd5b50565b60008151905061093f81610919565b92915050565b60006020828403121561095b5761095a610401565b5b600061096984828501610930565b91505092915050565b600082825260208201905092915050565b7f696e76616c69642070726f6f6600000000000000000000000000000000000000600082015250565b60006109b9600d83610972565b91506109c482610983565b602082019050919050565b600060208201905081810360008301526109e8816109ac565b9050919050565b6000815190506109fe81610586565b92915050565b600080600080600080600080610100898b031215610a2557610a24610401565b5b6000610a338b828c016109ef565b9850506020610a448b828c016109ef565b9750506040610a558b828c016109ef565b9650506060610a668b828c016109ef565b9550506080610a778b828c016109ef565b94505060a0610a888b828c016109ef565b93505060c0610a998b828c016109ef565b92505060e0610aaa8b828c016109ef565b9150509295985092959890939650565b7f4e487b7100000000000000000000000000000000000000000000000000000000600052603260045260246000fdfea2646970667358221220402f4d1d7fe03da1d0666829aee2e3cddb982d4ec34fb7a5ae1152af50f6fa4564736f6c63430008180033",
  "linkReferences": {},
  "deployedLinkReferences": {}
}