{
  "_format": "hh-sol-artifact-1",
  "contractName": "CircomExample",
  "sourceName": "contracts/CircomExample.sol",
  "abi": [
    {
      "inputs": [
        {
          "internalType": "address",
          "name": "_multiplier",
          "type": "address"
        }
      ],
      "stateMutability": "payable",
      "type": "constructor"
    },
    {
      "inputs": [],
      "name": "multiplier",
      "outputs": [
        {
          "internalType": "contract Groth16Verifier",
          "name": "",
          "type": "address"
        }
      ],
      "stateMutability": "view",
      "type": "function"
    },
    {
      "inputs": [
        {
          "internalType": "bytes",
          "name": "_proof",
          "type": "bytes"
        },
        {
          "internalType": "uint256[1]",
          "name": "_pubSignals",
          "type": "uint256[1]"
        }
      ],
      "name": "multiplierVerify",
      "outputs": [],
      "stateMutability": "view",
      "type": "function"
    },
    {
      "inputs": [
        {
          "internalType": "bytes",
          "name": "data",
          "type": "bytes"
        }
      ],
      "name": "parseProof",
      "outputs": [
        {
          "internalType": "uint256[2]",
          "name": "a",
          "type": "uint256[2]"
        },
        {
          "internalType": "uint256[2][2]",
          "name": "b",
          "type": "uint256[2][2]"
        },
        {
          "internalType": "uint256[2]",
          "name": "c",
          "type": "uint256[2]"
        }
      ],
      "stateMutability": "pure",
      "type": "function"
    }
  ],
  "bytecode": "0x6080604052604051610ce7380380610ce7833981810160405281019061002591906100ce565b806000806101000a81548173ffffffffffffffffffffffffffffffffffffffff021916908373ffffffffffffffffffffffffffffffffffffffff160217905550506100fb565b600080fd5b600073ffffffffffffffffffffffffffffffffffffffff82169050919050565b600061009b82610070565b9050919050565b6100ab81610090565b81146100b657600080fd5b50565b6000815190506100c8816100a2565b92915050565b6000602082840312156100e4576100e361006b565b5b60006100f2848285016100b9565b91505092915050565b610bdd8061010a6000396000f3fe608060405234801561001057600080fd5b50600436106100415760003560e01c80631b3ed72214610046578063793deea314610064578063d910276d14610096575b600080fd5b61004e6100b2565b60405161005b9190610419565b60405180910390f35b61007e6004803603810190610079919061058e565b6100d6565b60405161008d9392919061078a565b60405180910390f35b6100b060048036038101906100ab91906108a4565b610251565b005b60008054906101000a900473ffffffffffffffffffffffffffffffffffffffff1681565b6100de61034b565b6100e661036d565b6100ee61034b565b838060200190518101906101029190610915565b8a600060028110610116576101156109cb565b5b602002018b60016002811061012e5761012d6109cb565b5b602002018b600060028110610146576101456109cb565b5b602002015160006002811061015e5761015d6109cb565b5b602002018c600060028110610176576101756109cb565b5b602002015160016002811061018e5761018d6109cb565b5b602002018d6001600281106101a6576101a56109cb565b5b60200201516000600281106101be576101bd6109cb565b5b602002018e6001600281106101d6576101d56109cb565b5b60200201516001600281106101ee576101ed6109cb565b5b602002018e600060028110610206576102056109cb565b5b602002018f60016002811061021e5761021d6109cb565b5b60200201888152508881525088815250888152508881525088815250888152508881525050505050505050509193909250565b600080600061025f856100d6565b92509250925060008054906101000a900473ffffffffffffffffffffffffffffffffffffffff1673ffffffffffffffffffffffffffffffffffffffff166343753b4d848484886040518563ffffffff1660e01b81526004016102c49493929190610a7e565b602060405180830381865afa1580156102e1573d6000803e3d6000fd5b505050506040513d601f19601f820116820180604052508101906103059190610afd565b610344576040517f08c379a000000000000000000000000000000000000000000000000000000000815260040161033b90610b87565b60405180910390fd5b5050505050565b6040518060400160405280600290602082028036833780820191505090505090565b60405180604001604052806002905b61038461034b565b81526020019060019003908161037c5790505090565b600073ffffffffffffffffffffffffffffffffffffffff82169050919050565b6000819050919050565b60006103df6103da6103d58461039a565b6103ba565b61039a565b9050919050565b60006103f1826103c4565b9050919050565b6000610403826103e6565b9050919050565b610413816103f8565b82525050565b600060208201905061042e600083018461040a565b92915050565b6000604051905090565b600080fd5b600080fd5b600080fd5b600080fd5b6000601f19601f8301169050919050565b7f4e487b7100000000000000000000000000000000000000000000000000000000600052604160045260246000fd5b61049b82610452565b810181811067ffffffffffffffff821117156104ba576104b9610463565b5b80604052505050565b60006104cd610434565b90506104d98282610492565b919050565b600067ffffffffffffffff8211156104f9576104f8610463565b5b61050282610452565b9050602081019050919050565b82818337600083830152505050565b600061053161052c846104de565b6104c3565b90508281526020810184848401111561054d5761054c61044d565b5b61055884828561050f565b509392505050565b600082601f83011261057557610574610448565b5b813561058584826020860161051e565b91505092915050565b6000602082840312156105a4576105a361043e565b5b600082013567ffffffffffffffff8111156105c2576105c1610443565b5b6105ce84828501610560565b91505092915050565b600060029050919050565b600081905092915050565b6000819050919050565b6000819050919050565b61060a816105f7565b82525050565b600061061c8383610601565b60208301905092915050565b6000602082019050919050565b61063e816105d7565b61064881846105e2565b9250610653826105ed565b8060005b8381101561068457815161066b8782610610565b965061067683610628565b925050600181019050610657565b505050505050565b600060029050919050565b600081905092915050565b6000819050919050565b600081905092915050565b6106c0816105d7565b6106ca81846106ac565b92506106d5826105ed565b8060005b838110156107065781516106ed8782610610565b96506106f883610628565b9250506001810190506106d9565b505050505050565b600061071a83836106b7565b60408301905092915050565b6000602082019050919050565b61073c8161068c565b6107468184610697565b9250610751826106a2565b8060005b83811015610782578151610769878261070e565b965061077483610726565b925050600181019050610755565b505050505050565b6000610100820190506107a06000830186610635565b6107ad6040830185610733565b6107ba60c0830184610635565b949350505050565b600067ffffffffffffffff8211156107dd576107dc610463565b5b602082029050919050565b600080fd5b6107f6816105f7565b811461080157600080fd5b50565b600081359050610813816107ed565b92915050565b600061082c610827846107c2565b6104c3565b90508060208402830185811115610846576108456107e8565b5b835b8181101561086f578061085b8882610804565b845260208401935050602081019050610848565b5050509392505050565b600082601f83011261088e5761088d610448565b5b600161089b848285610819565b91505092915050565b600080604083850312156108bb576108ba61043e565b5b600083013567ffffffffffffffff8111156108d9576108d8610443565b5b6108e585828601610560565b92505060206108f685828601610879565b9150509250929050565b60008151905061090f816107ed565b92915050565b600080600080600080600080610100898b0312156109365761093561043e565b5b60006109448b828c01610900565b98505060206109558b828c01610900565b97505060406109668b828c01610900565b96505060606109778b828c01610900565b95505060806109888b828c01610900565b94505060a06109998b828c01610900565b93505060c06109aa8b828c01610900565b92505060e06109bb8b828c01610900565b9150509295985092959890939650565b7f4e487b7100000000000000000000000000000000000000000000000000000000600052603260045260246000fd5b600060019050919050565b600081905092915050565b6000819050919050565b6000602082019050919050565b610a30816109fa565b610a3a8184610a05565b9250610a4582610a10565b8060005b83811015610a76578151610a5d8782610610565b9650610a6883610a1a565b925050600181019050610a49565b505050505050565b600061012082019050610a946000830187610635565b610aa16040830186610733565b610aae60c0830185610635565b610abc610100830184610a27565b95945050505050565b60008115159050919050565b610ada81610ac5565b8114610ae557600080fd5b50565b600081519050610af781610ad1565b92915050565b600060208284031215610b1357610b1261043e565b5b6000610b2184828501610ae8565b91505092915050565b600082825260208201905092915050565b7f696e76616c69642070726f6f6600000000000000000000000000000000000000600082015250565b6000610b71600d83610b2a565b9150610b7c82610b3b565b602082019050919050565b60006020820190508181036000830152610ba081610b64565b905091905056fea264697066735822122011ea4dedc5e680570ac9e9a405df9028ec3b75dfe5891244da0bd079d86e909364736f6c63430008180033",
  "linkReferences": {},
  "deployedLinkReferences": {}
}